:020000040800F2
:10000000180B0020A10100084D3D00083D350008F7
:10001000493D0008FD120008C1440008000000002E
:100020000000000000000000000000005D3F00082C
:100030000113000800000000513D00085F3F000868
:10004000BB010008BB010008BB010008BB010008A0
:10005000BB010008BB010008BB010008BB01000890
:10006000BB010008BB010008BB010008BB01000880
:10007000BB010008BB010008BB010008BB01000870
:10008000BB010008BB010008BB010008BB01000860
:10009000BB010008BB010008BB010008BB01000850
:1000A000BB010008BB010008BB010008BB01000840
:1000B00035400008BB010008BB010008BB01000877
:1000C000BB010008BB010008BB010008BB01000820
:1000D000BB010008BB010008BB010008BB01000810
:1000E000BB010008BB010008BB010008BB01000800
:1000F000BB010008BB010008BB010008BB010008F0
:10010000BB010008BB010008BB010008BB010008DF
:10011000BB010008BB010008BB010008BB010008CF
:10012000BB010008BB010008BB010008BB010008BF
:10013000BB010008BB010008BB010008BB010008AF
:10014000BB010008BB010008BB010008BB0100089F
:10015000BB010008BB010008BB010008BB0100088F
:10016000BB010008BB010008BB010008BB0100087F
:10017000BB010008BB010008BB0100080000000033
:10018000BB010008BB010008DFF810D000F0C6FC7E
:1001900000480047A1570008AFF30080180B00206B
:1001A0000648804706480047FEE7FEE7FEE7FEE711
:1001B000FEE7FEE7FEE7FEE7FEE7FEE72140000878
:1001C000890100082DE9F05F0546002092469B4614
:1001D00088460646814640241BE02846414647465D
:1001E000224600F00BFA53465A46C01A914110D3EA
:1001F00011461846224600F0F2F92D1A67EB010865
:100200004F4622460120002100F0E9F917EB0009D2
:100210004E41201EA4F10104DFDC484631462A4647
:100220004346BDE8F09F40EA01039B0703D009E085
:1002300008C9121F08C0042AFAD203E011F8013BD2
:1002400000F8013B521EF9D27047D2B201E000F82B
:10025000012B491EFBD270470022F6E710B513466A
:100260000A4604461946FFF7F0FF204610BD30B598
:1002700005462A460B4612F8010B13F8014B08B14C
:10028000A042F8D01CB1002802D06D1CF1E728462E
:1002900030BD10B5044604E00B7800F8013B03B113
:1002A000491C521EF8D2204610BD421C10F8011BFA
:1002B0000029FBD1801A704710B5002200E0521CC3
:1002C000835C8C5CA34201D1002BF8D1D8B2E1B29F
:1002D000401A10BD30B504460020034600E05B1C08
:1002E000934203D2E05CCD5C401BF8D030BD0000EF
:1002F0000FB400B58DB010A909900B9000914FF08C
:10030000FF300A9000200C900548069005480790A1
:100310006A4609A80F9900F095F90DB05DF814FB35
:10032000610600087F0600082DE9FF5F1D464FF0BB
:10033000FF3BD5E9014691465F464FF00008A969A9
:100340007F1C01988847296A824688470028F6D191
:10035000BAF1FF3F0CD024F4C064002E19DD600612
:1003600014D5BAF12B0F09D0BAF12D0F0ED103E03D
:10037000584604B0BDE8F09F44F48064A9697F1C2E
:1003800001988847761E8246002E02DDBAF1300FB2
:1003900003D0B9F1000F26D032E0A969761E44F4EB
:1003A00000747F1C019888478246002E05DDBAF153
:1003B000780F06D0BAF1580F03D0B9F1000F10D062
:1003C0001EE0B9F1000F02D0B9F1100F18D1A969E0
:1003D000761E24F400747F1C019888478246102002
:1003E00002E0082000E00A20814609E008FB090835
:1003F000A969761E44F400747F1C019888478246E0
:10040000002E05DD4946504600F008F90028EDDAD7
:10041000E96901988847A00502D46FF00100A8E7B8
:10042000E00725D1600613D5600502D5C8F10000AC
:1004300000E0404629680A1D2A600968220501D5A6
:10044000087015E0220701D5088011E008600FE070
:100450002868011D29600068210502D580F8008008
:1004600006E0210702D5A0F8008001E0C0F8008076
:1004700038467EE72DE9FF5FD2E901A74FF000087B
:10048000916999461446DDF838B046460198884788
:10049000054659EA0B0005D009E0A169761C0198D0
:1004A00088470546216A284688470028F5D1681CF8
:1004B00003D05FEACA7005D015E04FF0FF3004B0FA
:1004C000BDE8F09F2068011D2160D0F800800AE09F
:1004D0005FEACA7001D108F8015BA169761C7F1E32
:1004E000019888470546002F1ADD681C18D0B9F11D
:1004F000000F0DD0E81705EBD060421120F01F006F
:1005000059F822102A1A012090400142E0D107E058
:10051000BBF1000FDCD1216A284688470028D7D0DC
:10052000E16901988847BBF1000F07D1002E05DD76
:100530005FEACA7002D1002188F80010A068B842B2
:1005400003DDBBF1000F03D017B16FF00100B6E778
:100550003046B4E700F0004230F000400AD0C10D50
:1005600001F56071C0F3160042EA0151C20840076C
:100570001143704700200146704701F0004330B43A
:1005800021F0004150EA010206D00A0DA2F5607286
:10059000C1F31301002A02DC30BC00207047440F75
:1005A00044EAC104C100E01830BC00EBC25000F0C6
:1005B000C5B830B50B46014600202022012409E0D1
:1005C00021FA02F59D4205D303FA02F5491B04FA0C
:1005D00002F52844151EA2F10102F1DC30BD202AEB
:1005E00004DB203A00FA02F1002070479140C2F18A
:1005F000200320FA03F3194390407047202A04DBBC
:10060000203A21FA02F00021704721FA02F3D0408B
:10061000C2F1200291400843194670473A2800D29F
:10062000303820F02002412A01D3A2F1370088425D
:1006300001D34FF0FF307047026811441378016016
:1006400018467047D1600449516104491162002184
:100650001161114600F08CBA39060008650B0008DC
:10066000426842B1016811F8013B23B1521EC0E952
:100670000012184670470121C160881E7047426809
:100680005AB1C368016843B983688B4205D0491EDB
:10069000521CC0E90012002070474FF0FF30704735
:1006A0000FB4002300B589B00CA900910B996FF02D
:1006B0000042CB601E4B06931E4B07930423CDE9EB
:1006C00001321D4A089202466B46002000F07CFC75
:1006D00009B05DF814FB70B586B006464FF0FF30E8
:1006E0000091CDE90101002015460C4604903246E8
:1006F000694604A8FFF7D4FF02460498211825B1E3
:1007000008B1084600E020462860049800280DD073
:10071000002A02DD0098884208D0081B0094CDE929
:1007200001043246694604A8FFF7BAFF06B070BD5F
:10073000610600087F060008650B00080029A8BFB5
:100740007047401C490008BF20F00100704710B4FA
:10075000B0FA80FC00FA0CF050EA010404BF10BCAF
:10076000704749B1CCF1200421FA04F411FA0CF1DC
:1007700018BF012121430843A3EB0C01CB1D4FEA15
:1007800000614FEA102042BF002010BC704700EB10
:10079000C35010440029A4BF10BC7047401C49003E
:1007A00008BF20F0010010BC70472DE9FE4F8046C5
:1007B00081EA0300C00F0C46009021F0004123F0B5
:1007C0000045B8EB0200A94105D2404621469046BB
:1007D0001C460B46024623F00040104347D0270D2D
:1007E000C7F30A00C3F30A510290401A019040284F
:1007F0006BDAC3F3130040F4801B0098924620B1DB
:100800000023D2EB030A63EB0B0B01985946C0F1AE
:1008100040025046FFF7E3FE06460D465046594655
:10082000019A00F08DF910EB08006141002487EA7D
:10083000115284EAE7731A4340D0009A62B3019AD6
:10084000012A4FEA075215DC001B61EB02014FF051
:10085000004202EA0752CDE90042001C41F5801136
:1008600032462B4600F0DBFC03B0BDE8F08F40467B
:100870002146F9E7001B61EB0201001C41F58013E2
:1008800000185B412018A2F5001747EB030140EA6E
:10089000D570B6196D4111E06D084FEA360645EA8C
:1008A000C0754FEA0752001B61EB0201001C41F5C5
:1008B000801149084FEA30000019514132462B4659
:1008C00003B0BDE8F04F00F09BBC0098012240004F
:1008D0000023D0EB020263EBE073009821464FEA5D
:1008E000E074B8EB000061EB0401E9E783F000433A
:1008F0005BE781F0004158E72DE9FE4F81EA0304F0
:1009000004F0004421F0004100944FF0000B23F06C
:10091000004350EA01045ED052EA03045BD0C3F303
:100920000A54C1F30A552C44A4F2F3340194A0FBF9
:100930000254C1F3130141F48011C3F3130343F4D0
:10094000801301FB024400FB034E840A970A44EA29
:10095000815447EA8357A4FB076802958D0A05FB7B
:1009600007854FEA932C04FB0C542705029D4FEAA0
:10097000065847EA1637B5EB08056EEB070C870EED
:10098000920E47EA811742EA8312A7FB0201B6EBF7
:100990000B0164EB00042B0D43EA0C335E1844EBAF
:1009A0001C50DA465146E7FB0201C5F313044FEA37
:1009B0000B3343EA14534FEA0432019C43EA060323
:1009C000A4F10C040294009CCDE900B400F027FCD3
:1009D00003B0BDE8F08F00200146F9E72DE9F04DA6
:1009E00081EA030404F0004B21F0004514464FF067
:1009F000000A23F0004150EA050220D054EA010227
:100A00001DD0C5F30A570246C5F31303C1F3130003
:100A1000C1F30A5640F4801543F48013A7EB06088F
:100A2000101BD64608F2FD3873EB050002D308F11F
:100A3000010801E092185B41B8F1000F03DA0020D1
:100A40000146BDE8F08D00204FF480110646844633
:100A50000EE0171B73EB050705D3121B63EB0503B1
:100A600006434CEA010C49084FEA300092185B41FA
:100A700050EA0107EDD152EA030012D082EA0400E5
:100A800083EA0501084305D0101BAB4106D20122C1
:100A9000002306E000224FF0004302E06FF0010265
:100AA00053101AEB06004CEB085110EB0A0041EB17
:100AB0000B01BDE8F04D00F0A3BBC1F30A52C1F336
:100AC000130140F2FF3341F480119A4202DA002010
:100AD0000146704740F233439A42A2F2334202DCAD
:100AE0005242FFF78BBDFFF77ABD000030B5041E00
:100AF00071F1000404DB4FF00044404264EB01015B
:100B0000141E73F1000405DB1C464FF000435242F3
:100B100063EB0403994208BF904230BD064C074D79
:100B200006E0E06840F0010394E8070098471034BD
:100B3000AC42F6D3FFF72CFB643A0408843A04086D
:100B4000202A06DBCB17203A41FA02F043EAE07391
:100B500006E041FA02F3D040C2F12002914008437E
:100B600019467047C0B24FF4F05100F0A7BB000027
:100B70002DE9F34F8BB04FF0000801F10C000C464B
:100B80004FF0010B46460DF1080A01906269012100
:100B900001989047051E2DD0252D2CD0216A88471D
:100BA000C0B16269012101989047216A88470028F5
:100BB000F7D1411E62690198904700E0761CA16957
:100BC0000B988847216A88470028F7D1E1690B987C
:100BD0008847DBE7A1690B9888470746A84201D1FF
:100BE000761CD3E7E1690B9888477F1C02D1B8F1E6
:100BF000000F6FD047E1002762693D4639460198F2
:100C000090472A2804D16269012101989047012563
:100C1000DFF888926269012101989047A0F13001C4
:100C20000A290AD24F45E5DC07EB870100EB4107B3
:100C3000303FDFD445F01005ECE7E90601D46FF052
:100C400000476C280AD04C2814D0682815D06A2890
:100C50000DD074281CD07A281AD01DE062690121B9
:100C6000019890476C2802D045F0040514E045F047
:100C700002050DE045F020050AE0626901210198B6
:100C80009047682802D045F0080505E045F4006566
:100C90006269012101989047C4E9015765283DD058
:100CA00019DC58287AD00CDC452837D004DC2528FC
:100CB00026D0412831D131E046282FD047282CD1E9
:100CC0002CE05B2877D0612828D063287CD064286A
:100CD00023D15AE0D1E06F2848D008DC66281DD027
:100CE00067281BD0692821D06E2816D127E07028EC
:100CF00045D0732868D0752847D078280DD14DE0AD
:100D0000A1690B988847054625283FF469AFE1693A
:100D10000B9888476D1C3FF46AAFB4E023466A46DF
:100D20006FF001000B9900F04FF99FE045F0400093
:100D30006060A80723464FF0000236D43EE0E80783
:100D40007FF447AF2068011D21600068290501D5A7
:100D500006701BE7290701D5068017E7A90703D509
:100D6000F117C0E9006111E706600FE745F04000A8
:100D70006060A80723464FF0080216D41EE040F634
:100D80000E0125EA0100606016E045F04000606059
:100D9000A80723464FF00A0207D40FE045F04000B1
:100DA0006060A80708D5234610226FF001000B9958
:100DB000AFF300805AE007E0234610226FF00100F5
:100DC0000B99FFF7B1FA51E04FF000094F464B463F
:100DD000632802D05B2807D041E02079C00601D407
:100DE0000120A06001273AE0626901210198904743
:100DF0005E2805D14FF00109626949460198904784
:100E0000216939B900210A46534643F82120491C7B
:100E10000829FADBB0B3216969B9C11700EBD162C7
:100E200053110AEB830122F01F02821A01200B6882
:100E3000904003430B6062690121019890475D284F
:100E4000E8D1B9F1000F09D00020514651F8202017
:100E5000D24341F82020401C0828F7DB02AB224691
:100E600000976FF001000B99FFF704FB00280CDAE4
:100E7000401C08D1BBF1000F05D04FF0FF300DB082
:100E8000BDE8F08FFFE74046F9E7E90701D108F137
:100E9000010806444FF0000B78E60000CCCCCC0CE7
:100EA0002DE9FF4F087883B09946FF2805D0491CEB
:100EB0002D2804D00024002008E000200BE00124AD
:100EC000F9E700EB800003EB4000491C0B78FF2B97
:100ED000F7D104B1404200230293147819461D460D
:100EE0002D2C01D02B2C04D1521C2D2C13D00024DE
:100EF0000294AA461478FF2C0FD00A25A3FB05788C
:100F000001FB05814FF0000C03FB0C11521CE3198F
:100F10004AEB0101EEE70124EAE7814453EA0100CC
:100F200002D019F5C87F06DA03980021C0E9001144
:100F300007B0BDE8F08F0025AE4E2F46DFF8B8822F
:100F4000184600F0CFF9CDE90001B9F1000002DA4E
:100F5000C9F1000400E004460023A74A1AEB030B82
:100F600042EB045A12E0E00707D02A4633463846DF
:100F70004146FFF7C1FC074688462A4633461046DD
:100F80001946FFF7B9FC05460E466410002CEAD15D
:100F9000DDE90001B9F1000F5A46534606DAFFF7C2
:100FA0001DFD3A464346FFF719FD05E0FFF7A4FC97
:100FB0003A464346FFF7A0FC029A0AB181F000418D
:100FC000039AC2E90001B3E72DE9FF4F1F468DB038
:100FD000D7E901464FF0FF382E2045464FF0000973
:100FE0000B90B9696D1C0E988847396A824688470C
:100FF0000028F6D1BAF1FF3F0AD024F4D064002EC5
:1010000011DDBAF12B0F08D0BAF12D0F0BD102E090
:10101000404611B08DE744F48064B9696D1C0E98A8
:1010200088478246761E6946600501D52D2000E07E
:101030002B208DF8000001F1010B0DF1200809E0D3
:10104000B9696D1C0E98884782460F9844F4007465
:10105000761E0560002E02DDBAF1300FF0D00B993C
:101060008A453ED144F0800406E00F99681CA9F13E
:10107000010944F400740860B9696D1C761E0E986D
:10108000884782463028F0D02BE00B998A4505D15D
:10109000200603D444F08004761E18E0504603F086
:1010A00051FB08B30DF11301761E44F400748B4517
:1010B00008D2AAF130000BF8010B200607D5A9F1E0
:1010C000010003E0200602D409F101008146A005D9
:1010D00002D50F99681C0860B9696D1C0E98884785
:1010E0008246002ED1DC53E0002E51DDBAF1650FAF
:1010F00002D0BAF1450F4BD1A00549D5B9696D1C95
:1011000024F44074761E0E9888478246002E0CDD2B
:101110002B2804D0BAF12D0F07D144F48074B9699B
:101120006D1C0E9888478246761EE00501D52D215C
:1011300000E02B2108F8011BCDF82C8021E00DF1F7
:101140002901761E44F4007488450CD2AAF13000BF
:1011500010F0FF0088F8000002D10B99884509D9EA
:1011600008F1010806E0E00501D5244801E042F25B
:101170000F708146B9696D1C0E98884782460F989A
:101180000560002E04DD504603F0DCFA0028D6D1BD
:10119000F9690E988847FF208BF8000088F8000056
:1011A0000020069007904B466A4608A906A8FFF75C
:1011B00077FEA00502D46FF001002AE714F0240F97
:1011C0000AD0E00714D1DDE906123868031D3B6040
:1011D0000068C0E900120BE0DDE90601FFF7CDF978
:1011E0000146E00704D13868021D3A6000680160DA
:1011F00028460EE7000014400000F03FF1D8FFFF42
:1012000010B5141E73F1000408DA401C41F100010E
:1012100092185B411A4301D120F0010010BD2DE965
:10122000F04D92469B4611B1B1FA81F202E0B0FA5C
:1012300080F220329046FFF7D2F904460F4640EA8A
:101240000A0041EA0B0153465A46084313D011469F
:1012500053EA010019D0C8F140025046FFF7CEF919
:1012600005460E46504659464246FFF7B8F9084330
:1012700005D0012004E020463946BDE8F08D00206D
:10128000054346EAE0762C4337430A986305E40AAF
:10129000A0EB08000022FD0A44EA47540A3002D5B8
:1012A00000200146E9E7010510196941DDE908451B
:1012B00000196941BDE8F04DA2E700007F2801D97F
:1012C000002208E0064A02EB5002C007127800D163
:1012D000120902F00F020120904008407047000000
:1012E0009F3804080EB540F2334202920022CDE945
:1012F00000221346FFF793FF03B000BD00BFFEE7D7
:10130000704772B600BFFEE770B5044600F010F9F2
:1013100006462546681C10B104480078054400BF05
:1013200000F006F9801BA842FAD370BD0800002027
:10133000F8B502460B460025002400200021D6E027
:10134000012606FA01F51E6806EA0504AC4274D1CE
:101350001E7906F00306012E04D01E7906F003065E
:10136000022E13D190684F000326BE40B0434F00B9
:10137000DE68BE4030439060506801268E40B04326
:101380001E79C6F300168E40304350601E7906F079
:101390000306032E09D0D0684F000326BE40B04399
:1013A0004F009E68BE403043D0601E7906F00306B1
:1013B000022E13D1CF0802F1200656F827004E075F
:1013C000F70E0F26BE40B0434F07FF0E1E69BE400A
:1013D0003043CF0802F1200646F8270010684F007E
:1013E0000326BE40B0431E7906F003064F00BE4000
:1013F000304310605E6806F44036002E76D000BFA1
:10140000002600963C4E366846F480463A4F3E60D1
:101410003E46366806F48046009600BF00BF374E51
:101420008F0856F827008E07370F0F26BE40B043AF
:10143000334EB24202D1002624E057E0314EB24290
:1014400001D101261EE0304EB24201D1022619E040
:101450002E4EB24201D1032614E02D4EB24201D1EC
:1014600004260FE02B4EB24201D105260AE02A4E97
:10147000B24201D1062605E0284EB24201D107262C
:1014800000E008268F073F0FBE4030431B4E8F08F9
:1014900046F82700224E3068A0435E6806F48016A6
:1014A00006B120431E4E3060361D3068A0435E6892
:1014B00006F4001606B12043194E361D3060184E52
:1014C000361F3068A0435E6806F4003606B120433C
:1014D000134E361F3060361F3068A0435E6806F436
:1014E000803606B120430E4E083E3060491C10295C
:1014F000FFF426AFF8BD0000443802400838014030
:10150000000002400004024000080240000C0240BB
:10151000001002400014024000180240001C02406B
:10152000083C01400AB1816101E00B04836170470E
:1015300001480068704700000000002070B50446B4
:101540000CB9012070BD94F83D0028B9002084F842
:101550003C00204600F018FB242084F83D00206861
:10156000006820F00100216808602068006840F4ED
:101570000040216808602068006820F4004021686D
:10158000086000F0B7FD05465C496068884206D8EF
:101590005B48854201D2012007E0002005E0594860
:1015A000854201D2012000E00020012800D1C9E7D6
:1015B0005548B5FBF0F62068406820F03F00304306
:1015C000216848604D496068884201D8701C07E076
:1015D0004FF4967070434FF47A71B0FBF1F0401CF9
:1015E0002168096A21F03F010843216808624349E4
:1015F0006068884214D8681E61684900B0FBF1F049
:10160000401CC0F30B00042801D204203DE0681EFA
:1016100061684900B0FBF1F0401CC0F30B0034E0FE
:10162000A06838B9681E616801EB4101B0FBF1F0B8
:10163000401C0AE0681E616801EBC10202EB011167
:10164000B0FBF1F0401C40F48040C0F30B0008B93F
:1016500001201AE0A06848B9681E616801EB4101E9
:10166000B0FBF1F0401CC0F30B000CE0681E616899
:1016700001EBC10202EB0111B0FBF1F0401CC0F321
:101680000B0040F4804040F400402168C9694CF6EA
:10169000FF72914308432168C861D4E907010843F8
:1016A0002168096821F0C001084321680860D4E975
:1016B000031008432168896848F2FF3291430843C8
:1016C00021688860D4E9050108432168C96821F0D0
:1016D000FF0108432168C8602068006840F00100ED
:1016E0002168086000202064202084F83D0000204C
:1016F000206384F83E0000BF24E70000A0860100BC
:1017000080841E0000093D0040420F002DE9F8438F
:101710000446894617469846089EFFF709FF054686
:1017200094F83D0020287DD119230122B749204695
:10173000009502F054F810B10220BDE8F88300BF14
:1017400094F83C00012801D10220F6E7012084F83A
:101750003C0000BF2068006800F0010028B9206844
:10176000006840F00100216808602068006820F4EB
:10177000006021680860222084F83D00102084F871
:101780003E00002020646762A4F82A80608D2085D6
:101790009F48E0622B4632464946204601F0F0FE63
:1017A00008B10120C9E7208D88B900BF0020009052
:1017B00020684069009020688069009000BF00BFE9
:1017C0002068006840F400702168086047E0208DC0
:1017D000012817D12068006820F480602168086023
:1017E00000BF002000902068406900902068806958
:1017F000009000BF00BF2068006840F400702168BE
:1018000008602CE0208D022818D12068006820F4A0
:101810008060216808602068006840F400602168EA
:10182000086000E0EFE000BF002000902068406901
:10183000009020688069009000BF10E02068006878
:1018400040F480602168086000BF0020009020689C
:101850004069009020688069009000BF00BFC3E02D
:10186000208D03287ED8208D012815D12A463146A7
:10187000204602F090F808B101205EE72068006978
:10188000616A0870606A401C6062208D401E20857D
:10189000608D401E6085A7E0208D02282AD1334646
:1018A00000225C492046009501F099FF08B1012013
:1018B00043E72068006840F40070216808602068F1
:1018C0000069616A0870606A401C6062208D401E79
:1018D0002085608D401E608520680069616A0870FF
:1018E000606A401C6062208D401E2085608D401E15
:1018F000608579E03346002246492046009501F094
:101900006EFF08B1012018E72068006820F48060AD
:101910002168086020680069616A0870606A401C7C
:101920006062208D401E2085608D401E608533469C
:10193000002238492046009501F051FF08B10120EE
:10194000FBE62068006840F40070216808602068A9
:101950000069616A0870606A401C6062208D401EE8
:10196000208500E010E0608D401E608520680069E1
:10197000616A0870606A401C6062208D401E20858C
:10198000608D401E60852FE02A463146204602F0D9
:1019900002F808B10120D0E620680069616A087089
:1019A000606A401C6062208D401E2085608D401E54
:1019B000608520684069C0F38000A8B1208D0328AD
:1019C00005D12068006820F48060216808602068E4
:1019D0000069616A0870606A401C6062208D401E68
:1019E0002085608D401E6085208D00287FF438AFF3
:1019F000202084F83D00002084F83E0000BF84F8D9
:101A00003C0000BF99E6022097E6000002001000AB
:101A10000000FFFF040001002DE9F8430446894659
:101A200016461F46DDF82080FFF782FD054694F834
:101A30003D0020287ED119230122514920460095DE
:101A400001F0CDFE10B10220BDE8F88300BF94F88C
:101A50003C00012801D10220F6E7012084F83C0077
:101A600000BF2068006800F0010028B92068006805
:101A700040F00100216808602068006820F40060E0
:101A800021680860212084F83D00102084F83E0081
:101A90000020206466626785608D20853948E06299
:101AA0002B4642464946204601F006FE08B1012079
:101AB000CAE700BF002000902068406900902068BD
:101AC0008069009000BF00BF44E02A46414620469E
:101AD00001F0A6FF50B1206C042805D120680068F1
:101AE00040F40070216808600120ADE7606A00786A
:101AF00021680861606A401C6062608D401E6085DC
:101B0000208D401E208520684069C0F3800070B1A0
:101B1000208D60B1606A007821680861606A401CAD
:101B20006062608D401E6085208D401E20852A46A3
:101B3000414600E022E0204601F01EFE50B1206C3C
:101B4000042805D12068006840F40070216808600E
:101B5000012079E7208D0028B7D12068006840F483
:101B6000007021680860202084F83D00002084F87F
:101B70003E0000BF84F83C0000BF65E7022063E739
:101B8000020010000000FFFF10B586B004461421CB
:101B900001A8FEF761FB1B492068884230D100BFD5
:101BA000002000901848006840F0020016490860C4
:101BB0000846006800F00200009000BF00BF4FF42C
:101BC00040600190122002900020039003200490B6
:101BD0000420059001A90D48FFF7AAFB00BF0020D3
:101BE000009009481030006840F480000649103128
:101BF00008600846006800F48000009000BF00BF45
:101C000006B010BD005800403038024000040240C9
:101C1000034800680349097808440149086070478F
:101C2000000000200800002010B50D48006840F4B6
:101C300000700B4908600846006840F48060086046
:101C40000846006840F480700860032000F0A6F8A1
:101C50000F2000F007F800F02BF8002010BD000066
:101C6000003C024070B504460E4800784FF47A718B
:101C7000B1FBF0F00C490968B1FBF0F5284601F022
:101C800068F808B1012070BD102C07D2002221464F
:101C9000501E00F045F80548046001E00120F2E71D
:101CA0000020F0E7080000200C00002004000020C5
:101CB00008B500BF002000900E48006840F4804046
:101CC0000C4908600846006800F48040009000BF9E
:101CD00000BF00BF00200090081F006840F0805047
:101CE000091F08600846006800F08050009000BF9F
:101CF00000BF08BD443802400146084600280DDBFD
:101D000000BF00BF00F01F0301229A4043099B005F
:101D100003F1E023C3F8002100BF00BF00BF7047FC
:101D20002DE9F05F80460D461646002702F0F4FBD1
:101D3000074639462A46334601F00700C0F1070A34
:101D4000BAF1040F02D94FF0040A01E0C0F1070A0A
:101D5000D14600F1040ABAF1070F02D24FF0000A8F
:101D600001E0A0F1030AD4464FF0010A0AFA09FA89
:101D7000AAF1010A0AEA020A0AFA0CFA4FF0010B68
:101D80000BFA0CFBABF1010B0BEA030B4AEA0B0459
:101D90002146404602F0C8FBBDE8F09F00BF00F0BE
:101DA0000702064B19684FF6FF031940044B0B431B
:101DB00043EA0221014B196000BF70470CED00E0BF
:101DC0000000FA05F8B5044600250026207800F04A
:101DD000010020B9207800F0040004282FD1002051
:101DE0005B498866FFF7A4FB054606E0FFF7A0FB0A
:101DF000401B022801D90320F8BD56480068C0F3F3
:101E0000C0600028F2D160688101207A41EA007048
:101E100050498431086001204D498866FFF788FBEE
:101E2000054606E0FFF784FB401B022801D903208A
:101E3000E2E748480068C0F3C0600028F2D020788C
:101E400000F0020002287DD100BF00200090414830
:101E50004030006840F080503E49403108600846FC
:101E6000006800F08050009000BF00BF3A48006852
:101E700040F4807038490860FFF75AFB054606E0D9
:101E8000FFF756FB401B022801D90320B4E7324874
:101E9000006800F480700028F2D02E48703000688E
:101EA00000F440764EB3A08900F44070B04224D0D4
:101EB00028487030006820F44076012027490860E7
:101EC00000200860234870300660006800F00100C0
:101ED00098B1FFF72DFB054608E0FFF729FB401BF3
:101EE00041F28831884201D9032085E719487030D2
:101EF0000068C0F340000028EFD000BFA08900F4C4
:101F00004070B0F5407F0CD112480830006820F4D2
:101F1000F810134AE168114008430E49083108607F
:101F200007E00C480830006820F4F810094908312F
:101F30000860084870300068A189C1F30B010843AC
:101F4000044900E002E07031086000BF002053E760
:101F5000000047420038024000700040400E4742F7
:101F6000FFFCFF0F70B504460D460CB9012070BD93
:101F70005848006800F00700A84209D255490D7082
:101F80000846006800F00700A84201D00120EEE7F3
:101F9000207800F0020002281DD1207800F0040013
:101FA000042805D14C48006840F4E0504A490860D4
:101FB000207800F00800082805D14748006840F460
:101FC0006040454908604448006820F0F000A1687E
:101FD000084341490860207800F00100A8B3606818
:101FE000012807D13C4808380068C0F34040B8B920
:101FF0000120BCE76068022802D06068032807D18E
:10200000354808380068C0F3406048B90120AEE7A1
:10201000314808380068C0F3400008B90120A6E73D
:102020002D48006820F00300616808432A490860D1
:10203000FFF77EFA064609E0FFF77AFA801B41F2C5
:102040008831884202D9032091E707E022480068DE
:1020500000F00C006168B0EB810FEDD11D48006805
:1020600000F00700A84209D91A490D700846006817
:1020700000F00700A84201D0012078E7207800F0A6
:102080000400042807D11448006820F4E050E168F7
:10209000084311490860207800F00800082808D19A
:1020A0000D48006820F46040216940EAC1000A49F7
:1020B000086000F03FF808490968C1F30311074AB6
:1020C000515CC8400649086006480068FFF7CAFD31
:1020D00000204CE7003C024008380240D86E00085F
:1020E0000C00002004000020014800687047000038
:1020F0000C00002000B5FFF7F7FF04490968C1F3A1
:102100008221034A515CC84000BD000008380240EB
:10211000E86E000800B5FFF7E7FF04490968C1F35E
:102120004231034A515CC84000BD000008380240FB
:10213000E86E00082DE9F047002400250026A1469E
:102140002548006800F00C0020B1042805D00828BC
:102150003AD105E0DFF8849039E0DFF8849036E08A
:102160001D48001F006800F03F041B48001F006866
:1021700000F4800078B11A481749091F0968C1F3B3
:102180008811A0FB01700146224600233846FEF765
:1021900019F805460EE011480F49091F0968C1F3F7
:1021A0008811A0FB01700146224600233846FEF745
:1021B00009F805460848001F0068C0F30140401CAC
:1021C0004600B5FBF6F902E0DFF8109000BF00BF53
:1021D0004846BDE8F0870000083802400024F400BB
:1021E00000127A00F8B504460CB90120F8BD207839
:1021F00000F00100002874D0F948006800F00C00DD
:1022000004280DD0F648006800F00C00082813D10F
:10221000F348001F006800F48000B0F5800F0BD178
:10222000EF4808380068C0F34040002859D0606883
:10223000002856D10120D9E700BF6068B0F5803F83
:1022400008D1E7480838006840F48030E44908398C
:1022500008601EE06068B0F5A02F0DD1E048083896
:10226000006840F48020DE490839086008460068AC
:1022700040F4803008600CE0D9480838006820F449
:102280008030D749083908600846006820F480206B
:10229000086000BF606890B1FFF74AF9054606E0A4
:1022A000FFF746F9401B642801D903209EE7CC487C
:1022B00008380068C0F340400028F1D011E0FFF773
:1022C00037F9054606E0FFF733F9401B642801D9CA
:1022D00003208BE7C24808380068C0F3404000285C
:1022E000F1D1207800F0020002285FD1BC480068DC
:1022F00000F00C0058B1BA48006800F00C00082843
:102300001CD1B748001F006800F48000B0B9B44881
:1023100008380068C0F3400020B1E068012801D00F
:10232000012063E7AE480838006820F0F800216912
:1023300040EAC100AA490839086037E0E06800B304
:102340000120A8490860FFF7F3F8054606E0FFF70B
:10235000EFF8401B022801D9032047E7A0480838BE
:102360000068C0F340000028F1D09D48083800689C
:1023700020F0F800216940EAC10099490839086055
:1023800014E0002097490860FFF7D2F8054606E000
:10239000FFF7CEF8401B022801D9032026E790481A
:1023A00008380068C0F340000028F1D1207800F020
:1023B000080008282CD16069A8B101208A4908606A
:1023C000FFF7B6F8054606E0FFF7B2F8401B022813
:1023D00001D903200AE782486C300068C0F340004E
:1023E0000028F1D014E000207F490860FFF7A0F832
:1023F000054606E0FFF79CF8401B022801D90320A0
:10240000F4E677486C300068C0F340000028F1D152
:10241000207800F00400042870D10027704838307C
:10242000006800F0805090B900BF002000906C4818
:102430003830006840F080506949383108600846FB
:10244000006800F08050009000BF00BF012767487F
:10245000006800F48070B0B96448006840F480708F
:1024600062490860FFF764F8054606E0FFF760F888
:10247000401B022801D90320B8E65C48006800F43C
:1024800080700028F2D000BFA068012808D154480D
:102490006830006840F001005149683108601DE073
:1024A000A06805280DD14E486830006840F004004F
:1024B0004B49683108600846006840F00100086038
:1024C0000CE047486830006820F00100444968315A
:1024D00008600846006820F00400086000BFA0689B
:1024E000A8B1FFF725F8054609E0FFF721F8401BE2
:1024F00041F28831884202D9032077E626E0384845
:1025000068300068C0F340000028EED013E0FFF709
:102510000FF8054608E0FFF70BF8401B41F2883141
:10252000884201D9032061E62D4868300068C0F375
:1025300040000028EFD1012F07D12948383000682A
:1025400020F0805026493831086000BFA06900287B
:1025500045D02348006800F00C0008285DD0A06931
:10256000022845D100201F490866FEF7E1FF054615
:1025700006E0FEF7DDFF401B022801D9032035E607
:10258000174808380068C0F340600028F1D1D4E94A
:1025900007010843616A40EA81110122A06AC2EB87
:1025A000500041EA00412C20005D41EA00600C49E6
:1025B000091F086001200B490866FEF7B9FF0546B0
:1025C00006E0FEF7B5FF401B022801D903200DE607
:1025D000034808380068C0F340600028F1D049E0A3
:1025E0000838024000004742800E47420070004019
:1025F000002021490866FEF79BFF054606E0FEF72E
:1026000097FF401B022801D90320EFE51B48006813
:10261000C0F340600028F2D12CE0A069012800D16D
:10262000E4E51648001D0668A069012820D006F4DC
:102630008001E06981421BD106F03F01206A81429E
:1026400016D147F6C0703040616AB0EB811F0FD1E0
:1026500006F440310122A06AC2EB5000B1EB004FFA
:1026600006D106F070612C20005DB1EB006F01D047
:102670000120BBE50020B9E50000474200380240D8
:1026800070B505460B4616460024286840680E497A
:1026900000EA0104200CD870C4F30420587004F040
:1026A0003F009870C4F3423018705EB9D87801F0DA
:1026B00050FBD870587801F04CFB5870987801F0B6
:1026C00048FB9870002070BD3FFFFF0070B50446C6
:1026D0000B46164600252068806A5860206800690D
:1026E000C0F30E009860206800680E4900EA0105FA
:1026F000C5F305401870C5F30620587005F07F003B
:102700009870A80DD8705EB9187801F022FB187087
:10271000587801F01EFB5870987801F01AFB9870F9
:10272000002070BD7F7F7F0070B504460CB901208A
:1027300070BD607F20B900202077204600F04EF861
:10274000022060772068C068C0F3001000283CD1E8
:1027500000BFCA202168486253202168486200BF38
:10276000204601F00EFB0546EDB9206880681A4945
:1027700008402168886021696068084361690843EE
:10278000216889680843216888602168E0680861D9
:1027900020680169208941EA0040216808612046DB
:1027A00001F014FB05465DB92068006C20F4802020
:1027B000216808642068006CA169084321680864E6
:1027C00000BFFF202168486200E000250DB901200C
:1027D00060772846ACE70000BFFF8FFF1FB50446B7
:1027E00000200090019002900390094920688842DF
:1027F0000CD102200090C00103906846FFF7E2FA76
:1028000008B1FEF77EFD0120024908601FBD0000EF
:10281000002800403C0E47422DE9F04105460C4699
:1028200017464FF0000800BF287F012802D1022080
:10283000BDE8F0810120287700BF022068774FB9FA
:10284000607800F01000102804D1607800F0EF00EC
:102850000A30607087B9E07801F086FA0304607886
:1028600001F082FA43EA0023A07801F07DFA0343E5
:10287000207843EA403809E0E0780004617840EAD3
:102880000120A1780843217840EA413800BFCA20DE
:102890002968486253202968486200BF284601F031
:1028A00070FA064646B90B4808EA000029684860F5
:1028B000284601F08BFA06460EB90120687700BF62
:1028C000FF202968486200BF00BF0020287700BFB2
:1028D0003046ADE73FFFFF002DE9F04104460D46CD
:1028E00017464FF0000800BF207F012802D10220C8
:1028F000BDE8F0810120207700BF02206077CFB9CA
:102900002068806800F0400000B102E00020E8701C
:1029100000BF287801F028FA0304687801F024FA4F
:1029200043EA0023A87801F01FFA0343E87843EA5A
:10293000805812E02068806800F0400000B102E09A
:102940000020E87000BF28780004697840EA012080
:10295000A9780843E97840EA815800BFCA20216875
:10296000486253202168486200BF204601F009FAFE
:102970000646B6B9124808EA0000216808602068D7
:10298000806820F4802021688860D5E9030108432D
:1029900021688968084321688860204601F016FA9A
:1029A00006460EB90120607700BFFF20216848620B
:1029B00000BF00BF0020207700BF304698E700002E
:1029C0007F7F7F0070B5044600250B482168C860F2
:1029D000FEF7AEFD054607E0FEF7AAFD401BB0F589
:1029E0007A7F01D9032070BD2068C06800F0200004
:1029F0000028F1D00020F6E75F7F0100014691F842
:102A00005100704710B504460CB9012010BD606A32
:102A100038B96068B0F5827F00D105E00021E1613E
:102A200002E00021216161610021A16294F851005E
:102A300028B9002084F85000204600F047F8022012
:102A400084F851002068006820F040002168086088
:102A5000A08800F48270218901F404410843A1890F
:102A600001F400610843217C01F002010843217D4B
:102A700001F001010843218B01F400710843217F1B
:102A800001F0380108432021095D01F0800108436D
:102A9000218D01F400510843216808600421A069D8
:102AA00001EA104094F8241001F010010843216855
:102AB00048602068C06920F400602168C861002077
:102AC0006065012084F8510000209FE710B586B0B2
:102AD0000446142101A8FDF7BFFB2A49206888425B
:102AE0004DD100BF002000902748006840F480408E
:102AF000254908600846006800F48040009000BF47
:102B000000BF00BF002000901F481038006840F050
:102B100004001D49103908600846006800F00400F0
:102B2000009000BF00BF00BF002000900846006872
:102B300040F0020008600846006800F002000090C3
:102B400000BF00BF0C2001900220029000200390E3
:102B5000032004900520059001A90C48FEF7E8FB2E
:102B60004FF40050019002200290002003900320B7
:102B700004900520059001A90548FEF7D9FB06B091
:102B800010BD0000003800404038024000080240FC
:102B9000000402402DE9F84304460F4616461D4640
:102BA000FEF7C6FC8046B14694F85100012802D0D9
:102BB0000220BDE8F88307B10EB90120F9E700BF94
:102BC00094F85000012801D10220F2E7012084F896
:102BD000500000BF032084F8510000206065276387
:102BE000A686E686A063A087E08760642064A0686C
:102BF000B0F5004F0BD12068006820F0400021683C
:102C000008602068006840F48040216808602068FF
:102C1000006800F04000402805D02068006840F0BF
:102C2000400021680860E068B0F5006F37D1606847
:102C300010B1B9F1010F09D1206B00882168C8607B
:102C4000206B801C2063E08E401EE08623E020681D
:102C5000806800F0020002280AD1206B00882168F9
:102C6000C860206B801C2063E08E401EE08612E06E
:102C7000FEF75EFCA0EB0800A84201D3681C00B977
:102C80004DB9012084F8510000BF002084F85000A5
:102C900000BF03208DE7E08E0028D8D136E06068C1
:102CA00010B1B9F1010F09D1206B007821680873C8
:102CB000206B401C2063E08E401EE08623E02068ED
:102CC000806800F0020002280AD1206B0078216899
:102CD0000873206B401C2063E08E401EE08612E0EB
:102CE000FEF726FCA0EB0800A84201D3681C00B93F
:102CF0004DB9012084F8510000BF002084F8500035
:102D000000BF032055E7E08E0028D8D1424629466F
:102D1000204601F073F808B120206065A06850B922
:102D200000BF002000902068C06800902068806884
:102D3000009000BF00BF012084F8510000BF0020B8
:102D400084F8500000BF606D08B1012031E7002019
:102D50002FE770B504462546681EB0F1807F01D389
:102D600001200FE0681E4FF0E02148610F214FF075
:102D7000FF3001F0D9FB00204FF0E02188610720EF
:102D80000861002070BD70477047000030B50246F2
:102D90000B4600BF92F83C00012801D1022030BD53
:102DA000012082F83C0000BF022082F83D0010683C
:102DB00044681068816824F070041868044310683F
:102DC0004460184D1068A8421BD01068B0F1804FC5
:102DD00017D0154D1068A84213D0144D1068A842A2
:102DE0000FD0134D1068A8420BD0124D1068A842A6
:102DF00007D0114D1068A84203D0104D1068A842AA
:102E000005D121F0800158680143106881600120DC
:102E100082F83D0000BF002082F83C0000BF00BFE8
:102E2000BDE7000000000140000400400008004031
:102E3000000C004000040140004001400018004028
:102E400010B504460CB9012010BD94F83D0028B916
:102E5000002084F83C00204600F026F8022084F888
:102E60003D00211D206801F0EDF8012084F84600A6
:102E700000BF84F83E0001213F200155402001554C
:102E80004120015500BF00BF012084F842004320CB
:102E90000155442001554520015500BF012084F80B
:102EA0003D000020D0E7000038B504462068B0F1AE
:102EB000804F17D100BF002000900B48006840F001
:102EC0000100094908600846006800F00100009010
:102ED00000BF00BF002211461C20FEF721FF1C206E
:102EE000FEF70AFF38BD000040380240014691F865
:102EF0003D00012801D001207047022081F83D00EB
:102F00000868C06840F001000B68D8601A4B086878
:102F100098421BD00868B0F1804F17D0174B086853
:102F2000984213D0164B086898420FD0154B08688A
:102F300098420BD0144B0868984207D0134B08688E
:102F4000984203D0124B086898420CD108688068F8
:102F500000F00702062A0CD00868006840F0010063
:102F60000B68186005E00868006840F001000B6815
:102F700018600020C0E7000000000140000400408D
:102F800000080040000C00400004014000400140E7
:102F9000001800402DE9F04104460D46002700BF0F
:102FA00094F83C00012802D10220BDE8F081012004
:102FB00084F83C0000BF022084F83D002068866849
:102FC00026F0770626F47F46206886602868502819
:102FD00033D00CDC202850D004DC00284BD0102843
:102FE00051D149E0302849D040284CD139E06028FF
:102FF0002DD0702807D0B0F5805F03D0B0F5005F0A
:1030000041D10DE041E0D5E902136A68206801F082
:1030100089F82068866846F077062068866034E084
:10302000D5E902136A68206801F07CF8206880689E
:1030300040F480402168886027E0EA686968206879
:1030400001F084F85021206801F077F81DE0EA686B
:103050006968206801F08DF86021206801F06DF842
:1030600013E0EA686968206801F070F84021206880
:1030700001F063F809E000BF00BF00BF29682068C5
:1030800001F05BF801E0012700BF00BF012084F8D8
:103090003D0000BF002084F83C0000BF384684E7B4
:1030A000704770B504462068C5682068066906F058
:1030B0000200022819D105F00200022815D1401F94
:1030C00021680861012020772068806900F00300F2
:1030D00018B12046FFF7E4FF05E0204600F097F81E
:1030E000204600F095F80020207706F00400042820
:1030F00019D105F00400042815D1C04321680861E6
:10310000022020772068806900F4407018B12046C2
:10311000FFF7C6FF05E0204600F079F8204600F0F2
:1031200077F80020207706F00800082819D105F06C
:103130000800082815D1C0432168086104202077C1
:103140002068C06900F0030018B12046FFF7A8FF0F
:1031500005E0204600F05BF8204600F059F800201A
:10316000207706F01000102819D105F01000102863
:1031700015D1C04321680861082020772068C06904
:1031800000F4407018B12046FFF78AFF05E02046A2
:1031900000F03DF8204600F03BF80020207706F0D4
:1031A000010048B105F0010030B16FF00100216865
:1031B0000861204600F02EF806F08000802809D132
:1031C00005F08000802805D1C043216808612046B1
:1031D000FFF7D9FD06F04000402809D105F0400076
:1031E000402805D1C04321680861204600F02CF832
:1031F00006F02000202809D105F02000202805D164
:10320000C043216808612046FFF7BEFD70BD7047CE
:103210007047000010B504462068B0F1804F0ED111
:10322000074801684068491C40F10000044A1160E9
:1032300050600448006810B102480068804710BD23
:103240004000002038000020704710B504460CB93B
:10325000012010BDA06900B100E000BF94F841005A
:1032600028B9002084F84000204600F029F82420E6
:1032700084F841002068C06820F400502168C860CC
:10328000204600F0C1FF2068006920F490402168CA
:1032900008612068406920F02A00216848612068A0
:1032A000C06840F400502168C8600020606420209D
:1032B00084F8410084F842000020606300BFC8E742
:1032C00010B586B00446142101A8FCF7C5FF3749A4
:1032D0002068884231D100BF002000903448006847
:1032E00040F01000324908600846006800F0100005
:1032F000009000BF00BF00BF002000902C48143891
:10330000006840F001002A49143908600846006846
:1033100000F00100009000BF00BF4FF4C0600190BA
:1033200002200290002003900320049007200590C3
:1033300001A92048FDF7FCFF35E01F4920688842BD
:1033400031D100BF002000901948001F006840F4F0
:1033500000301749091F08600846006800F4003073
:10336000009000BF00BF00BF00200090104814383C
:10337000006840F001000E491439086008460068F2
:1033800000F00100009000BF00BF0C20019002205F
:10339000029000200390022004900720059001A9CC
:1033A0000448FDF7C5FF06B010BD00000010014045
:1033B0004438024000000240004400402DE9F84F2C
:1033C00004460E46174699464FF0000A94F842000C
:1033D000202852D106B117B90120BDE8F88F00208E
:1033E0006064222084F8420000202063FEF7A0F8E9
:1033F0008246A785E785A068B0F5805F04D1206983
:1034000010B90025B04602E035464FF000082CE028
:103410005346002220212046CDF8009001F00AF802
:1034200020B1202084F842000320D6E745B9206867
:103430004068C0F30800A8F8000008F1020811E095
:10344000A068B0F5805F03D0A06828B9206918B9DA
:1034500020684068287004E02068406800F07F0021
:1034600028706D1CE08D401EE085E08D0028CFD1D6
:10347000202084F842000020AFE70220ADE72DE9CC
:10348000F84F04460E46174699464FF0000A94F846
:103490004100202850D106B117B90120BDE8F88FAE
:1034A00000206064212084F84100FEF741F8824644
:1034B000A784E784A068B0F5805F04D1206910B9C3
:1034C0000025B04602E035464FF000081EE05346A6
:1034D000002280212046CDF8009000F0ABFF20B103
:1034E000202084F841000320D8E745B9B8F800004F
:1034F000C0F308002168486008F1020803E028785A
:10350000216848606D1CE08C401EE084E08C00283F
:10351000DDD15346002240212046CDF8009000F036
:1035200089FF20B1202084F841000320B6E7202045
:1035300084F841000020B1E70220AFE700BFFEE7BA
:10354000014608684069C0F38020B0B16FF4806024
:103550000A68506100200863202081F83D000020A7
:1035600081F83E00086C40F00400086400BF0020B1
:1035700081F83C0000BF012070470020FCE70000FC
:103580002DE9F84304460D4690461E46E76A20683A
:10359000006840F4806021680860082F04D0012F83
:1035A00002D017F5803F06D12068006840F4807093
:1035B0002168086008E0206B112805D120680068A8
:1035C00040F4807021680860434600224FF00111EA
:1035D0002046009600F003F960B12068006800F40E
:1035E0008070B0F5807F02D14FF40070206403201A
:1035F000BDE8F8832069B0F5804F05D1E8B240F00E
:1036000001002168086149E005F44070F02141EAB9
:10361000E01021680861334642462649204600F002
:103620003DF908B10120E3E7E8B2216808613346BB
:1036300042462049891F204600F030F908B1012098
:10364000D6E700BF00200090206840690090206805
:103650008069009000BF00BF2068006840F480705F
:1036600021680860434600224FF001112046009671
:1036700000F0B5F858B12068006800F48070B0F52B
:10368000807F02D14FF4007020640320B0E705F47E
:103690004070F12141EAE01021680861334642465A
:1036A0000449891F204600F0F9F808B101209FE77E
:1036B00000209DE7080001002DE9F84304460D466F
:1036C00017469846E66A082E04D0012E02D016F559
:1036D000803F06D12068006840F48070216808604F
:1036E00008E0206B122805D12068006840F4807043
:1036F000216808603B4600224FF001112046CDF8BA
:10370000008000F06CF860B12068006800F4807000
:10371000B0F5807F02D14FF4007020640320BDE833
:10372000F8832069B0F5804F04D105F0FE002168D0
:10373000086112E005F44070F02141EAE0102168D0
:10374000086143463A460B49204600F0A7F808B105
:103750000120E4E7E8B22168086143463A4605499A
:10376000891F204600F09AF808B10120D7E7002011
:10377000D5E700000800010070B504460D46164666
:1037800025E02046FFF7DCFE08B1012070BD681C73
:10379000E8B1FDF7CDFE801BA84200D8BDB9206876
:1037A0004069C0F3800090B900202063202084F895
:1037B0003D00002084F83E00206C40F02000206492
:1037C00000BF002084F83C0000BF0120DEE7206835
:1037D0004069C0F380000028D3D00020D6E72DE94F
:1037E000F04104460D4617461E46DDF8188038E0C5
:1037F000701CA8B3FDF79CFEA0EB0800B04200D8F7
:1038000076BBC5F3074001280AD120684069A9B2F8
:103810000840A9B2884201D101200BE0002009E054
:1038200020688069A9B20840A9B2884201D101206C
:1038300000E00020B84214D100202063202084F84A
:103840003D00002084F83E00206C40F02000206401
:1038500000BF002084F83C0000BF0120BDE8F081DB
:10386000FFE7C5F3074001280AD120684069A9B2E3
:103870000840A9B2884201D101200BE0002009E0F4
:1038800020688069A9B20840A9B2884201D101200C
:1038900000E00020B842ABD00020DFE72DE9F04186
:1038A00004460D4616461F4658E020684069C0F39E
:1038B0008020E8B12068006840F40070216808604A
:1038C0006FF480602168486100202063202084F824
:1038D0003D00002084F83E00206C40F0040020648D
:1038E00000BF002084F83C0000BF0120BDE8F0814B
:1038F000701C90B3FDF71CFEC01BB04200D866BB25
:10390000C5F3074001280AD120684069A9B20840E0
:10391000A9B2884201D101200BE0002009E0206813
:103920008069A9B20840A9B2884201D1012000E013
:10393000002090B900202063202084F83D00002062
:1039400084F83E00206C40F02000206400BF00207E
:1039500084F83C0000BF0120C8E7FFE7C5F307403B
:1039600001280AD120684069A9B20840A9B288425A
:1039700001D101200BE0002009E020688069A9B294
:103980000840A9B2884201D1012000E000200028AF
:103990008BD00020AAE770B504460D46164637E0E6
:1039A00020684069C0F30010A0B16FF010002168DA
:1039B000486100202063202084F83D00002084F826
:1039C0003E00206C206400BF002084F83C0000BF53
:1039D000012070BDFDF7ACFD801BA84200D8BDB929
:1039E00020684069C0F3801090B900202063202037
:1039F00084F83D00002084F83E00206C40F0200058
:103A0000206400BF002084F83C0000BF0120E0E7F4
:103A100020684069C0F380100028C1D00020D8E79A
:103A200070B504460D46164625E02046FFF788FD92
:103A300008B1012070BD681CE8B1FDF779FD801B5D
:103A4000A84200D8BDB920684069C0F3C01090B941
:103A500000202063202084F83D00002084F83E00F0
:103A6000206C40F02000206400BF002084F83C005F
:103A700000BF0120DEE720684069C0F3C0100028C5
:103A8000D3D00020D6E7000000B587B0142102A8EB
:103A9000FCF7E2FB00BF002001903048006840F0D6
:103AA00010002E4908600846006800F010000190E0
:103AB00000BF00BF00BF002001900846006840F032
:103AC000040008600846006800F00400019000BF90
:103AD00000BF00BF002001900846006840F0800051
:103AE00008600846006800F08000019000BF00BF39
:103AF00000BF002001900846006840F00100086007
:103B00000846006800F00100019000BF00BF00BF40
:103B1000002001900846006840F002000860084656
:103B2000006800F00200019000BF00BF01221C21CC
:103B30000B48FDF7F7FC002220210948FDF7F2FCB5
:103B40003C20029001200390002004900220059068
:103B500002A90348FDF7ECFB07B000BD3038024076
:103B60000010024010B50B480B4908600B48486034
:103B7000002109488160C1604FF48041016100214A
:103B800041618161C1610162FDF7D8FC08B1FDF7B7
:103B9000B8FB10BD0058004058000020A08601006E
:103BA00000B587B0142102A8FCF756FB0020019055
:103BB0001B481C490860002048607F21194881602B
:103BC000FF21C1600021016141618161FEF7ACFD0F
:103BD00008B1FDF796FB00208DF808008DF809006C
:103BE0008DF80A0005900690002202A90D48FEF704
:103BF00073FE08B1FDF785FB01208DF804008DF8F8
:103C000005008DF8060000208DF80700002201A9AC
:103C10000448FEF701FE08B1FDF773FB07B000BDD5
:103C200000280040AC00002010B50E480E49086086
:103C30004FF48270486000210B488160C1600161CF
:103C400041614FF4007181610821C161002101626D
:103C5000416281620A21C162FEF7D4FE08B1FDF71C
:103C600050FB10BD00380040CC00002000B587B0EC
:103C700000200390049005900690019002904FF070
:103C80008040144908605320486000211148816039
:103C900040F2E731C1600021016180218161FFF7BD
:103CA000CFF808B1FDF72DFB4FF48050039003A926
:103CB0000848FFF76FF908B1FDF723FB00200190DA
:103CC000029001A90348FFF761F808B1FDF719FB5D
:103CD00007B000BD2401002010B50B480B49086057
:103CE0004FF4E1304860002108488160C160016103
:103CF0000C21416100218161C161FFF7A6FA08B181
:103D0000FDF7FFFA10BD0000001001406C0100201B
:103D100010B50B480B4908604FF4E13048600021B2
:103D200008488160C16001610C214161002181610D
:103D3000C161FFF78AFA08B1FDF7E3FA10BD000090
:103D400000440040B401002000BFFEE700BFFEE7D2
:103D50007047014600BF080900EB8000420001F0F7
:103D60000F001044C0B270470146002203E0521C0D
:103D7000A1F10A00C1B20A29F9D2100741EA106084
:103D8000704770B50446002600252068C06800F022
:103D90004000C8B92068C06840F080002168C86051
:103DA000FDF7C6FB064608E0FDF7C2FB801BB0F539
:103DB0007A7F02D90420607701252068C06800F06E
:103DC000400008B9012DEFD1284670BD70B50446FA
:103DD00000252068C06820F080002168C860206845
:103DE000806800F0200030B92046FEF7EBFD10B1EE
:103DF000042060770125284670BD00007CB504468C
:103E00000E4615463346012202212046009500F059
:103E100039F828B1606D40F02000606503207CBD5A
:103E2000164800681821B0FBF1F01549B0FBF1F01D
:103E30004FF47A71484301906068B0F5827F0DD1EC
:103E40003346002280212046009500F01BF898B1EF
:103E5000606D40F0200060650320E0E700BF01983E
:103E600000B908E00198401E019020688068C0F306
:103E7000C0100028F3D100BF0020D0E70C000020C4
:103E800040420F002DE9F84F04460D4690461E466D
:103E9000DDF82890FDF74CFBA0EB0900371AFDF781
:103EA00047FB82462C480068C0F3CB307843009033
:103EB00046E0701C002843D0FDF73AFBA0EB0A0057
:103EC000B84200D2A7BB2068406820F0E00021681B
:103ED00048606068B0F5827F0DD1A068B0F5004FF2
:103EE00003D0A068B0F5806F05D12068006820F08D
:103EF000400021680860A06AB0F5005F0DD100BFE6
:103F00002068006820F4005021680860206800687C
:103F100040F400502168086000BF012084F851007F
:103F200000BF002084F8500000BF0320BDE8F88FD8
:103F3000FFE7009808B9002702E00098401E0090B3
:103F4000206880682840A84201D1012000E00020BC
:103F50004045AED10020E9E70C000020704710B5C5
:103F6000FDF756FE10BD000000B593B0302107A844
:103F7000FCF772F9142102A8FCF76EF900BF0020CB
:103F800001902548006840F08050234908600846A9
:103F9000006800F08050019000BF00BF00BF00200B
:103FA00001901E48006840F480401C4908600846A3
:103FB000006800F48040019000BF00BF052007901A
:103FC0004FF4803008900120099002200D904105A7
:103FD0000E9104210F91A821109102211191042129
:103FE000129107A8FEF7FEF808B1FDF78AF90F2035
:103FF000029002200390002004904FF4A0500590FE
:104000004FF480500690052102A8FDF7ABFF08B1E0
:10401000FDF777F913B000BD403802400070004052
:104020000348006840F470000149086070470000D0
:1040300088ED00E010B50248FFF733F810BD00002E
:104040002401002010B502682B4B98420ED0B0F12D
:10405000804F0BD0294B984208D0294B984205D06D
:10406000284B984202D0284B984203D122F070028C
:104070004B681A43204B984220D0B0F1804F1DD09E
:104080001E4B98421AD01E4B984217D01D4B984297
:1040900014D01D4B984211D01C4B98420ED01C4B93
:1040A00098420BD01B4B984208D01B4B984205D02E
:1040B0001A4B984202D01A4B984203D122F4407214
:1040C000CB681A4322F080034C6943EA04028B68F0
:1040D000C3620B688362084B984202D00A4B984235
:1040E00001D10B690363036843F0040303600123F8
:1040F0004361026010BD0000000001400004004068
:1041000000080040000C0040000401400040014055
:10411000004401400048014000180040001C0040DD
:104120000020004030B50C46816821F47F4142EA0E
:10413000032525432943816030BD0A46816821F06B
:10414000700142F0070319438160704730B50B4698
:104150001446026A056A25F001050562816921F0AD
:10416000F00141EA041122F00A021A43816102625D
:1041700030BD30B50B461446026A056A25F01005BD
:104180000562816921F4704141EA043122F0A00204
:1041900042EA03128161026230BD00BF00BF0268C3
:1041A0000C3252E8002F22F4907102680C3242E87F
:1041B0000013002BF3D100BF00BF00BF0268143210
:1041C00052E8002F22F001010268143242E8001385
:1041D000002BF3D100BF016B01290ED100BF00BF3E
:1041E00002680C3252E8002F22F0100102680C32F3
:1041F00042E80013002BF3D100BF202180F84210C9
:1042000000210163704700002DE9F84F0446206843
:10421000006920F44050E168084321680861216981
:10422000A068084361690843E16908430090206879
:10423000C06849F20C618843009908432168C8604E
:104240002068406920F44070A169084321684861F2
:1042500076492068884203D075492068884203D196
:10426000FDF758FF814602E0FDF744FF8146E06913
:10427000B0F5004F6CD102206168A0FB01500346ED
:104280001920A9FB007001462A463846FBF79AFF21
:104290006421B0FBF1F04FEA001A02206168A0FB34
:1042A00001510B461920A9FB00712A463846FBF73D
:1042B00089FF834602206168A0FB01500346192054
:1042C000A9FB00712A463846FBF77CFF6421B0FB4E
:1042D000F1F000EBC00101EB0010ABEB80003221EC
:1042E00001EBC0006421B0FBF1F000F0F8000AEB34
:1042F000400A02206168A0FB015003461920A9FB77
:10430000007001462A463846FBF75CFF83460220D0
:104310006168A0FB015003461920A9FB00712A46E1
:104320003846FBF74FFF6421B0FBF1F000EBC00112
:1043300001EB0010ABEB8000322101EBC0006421E7
:10434000B0FBF1F000F007005044216888606AE09B
:1043500004206168A0FB015003461920A9FB0070EE
:1043600001462A463846FBF72DFF82460420616845
:10437000A0FB015003461920A9FB007001462A4604
:104380003846FBF71FFF6421B0FBF1F000EBC001E2
:1043900001EB0010AAEB8000322101EB0010642138
:1043A000B0FBF1F000F0F00A04206168A0FB01709E
:1043B00003461920A9FB00513A462846FBF702FFA5
:1043C0006421B0FBF1F00AEB001A04206168A0FB45
:1043D00001510B461920A9FB00712A463846FBF70C
:1043E000F1FE834604206168A0FB015003461920BA
:1043F000A9FB007001462A463846FBF7E3FE64211C
:10440000B0FBF1F000EBC00101EB0010ABEB800062
:10441000322101EB00106421B0FBF1F000F00F003D
:10442000504421688860BDE8F88F0000001001400A
:10443000001401402DE9F84304460D4617469846FE
:10444000089E31E0701C70B3FDF772F8A0EB080015
:10445000B04200D816B90320BDE8F8832068C068D0
:1044600000F00400F8B1802D1ED0402D1CD0206833
:104470000068C0F3C000B0B100BF00200090206809
:104480000068009020684068009000BF00BF204690
:10449000FFF783FE0820606400BF002084F840001E
:1044A00000BF0120D8E7FFE7206800682840A84245
:1044B00001D1012000E00020B842C3D00020CBE7AA
:1044C00000BFFEE70FB4054B10B503A9044A0298DC
:1044D00000F040F910BC5DF814FB0000C555000861
:1044E000500000200FB47CB50C0009AD01D0611E56
:1044F00000E00021CDE90001064B6A4629460898F4
:1045000000F028F9002C02D0009A002111707CBC28
:104510005DF814FB194F000802480068C0F3022040
:10452000704700000CED00E010B5002804DB0A071E
:10453000130E054A135406E00A07140E034A00F04E
:104540000F031B1FD45410BD00E400E018ED00E081
:1045500030B583B0044600F017F89FED090B05460F
:104560008DED000B002221466846FCF7B4F8284682
:1045700000F020F89DED000B03B030BD00000000FE
:1045800000000000000000000148006870470000C3
:104590005400002002E008C8121F08C1002AFAD106
:1045A00070477047002001E001C1121F002AFBD1B3
:1045B0007047000001490860704700005400002067
:1045C0002DE9FF5F82B00021DDE90430020DDDF846
:1045D00040B0034318D044F61050A2F2FF324243D9
:1045E0001514119801281FD0A5EB0B00401C5FEAA1
:1045F000000A4FF000064E4FDFF83891B0465046A3
:1046000015D5CAF1000413E0119801244AA301282A
:1046100001D16FEA0B010298119AC0E90031C0E99B
:10462000024206B0BDE8F09FCBF10000DFE7044690
:104630000021404A491842EB0450CDE9001012E035
:10464000E00707D032463B4640464946FCF754F95E
:104650008046894632463B4610461946FCF74CF9DF
:1046600006460F466410002CEAD1DDE90401DDE9BD
:104670000023BAF1000F06DAFCF73EF942464B463A
:10468000FCF73AF905E0FCF7A9F942464B46FCF77E
:10469000A5F904460E460022284BFCF727FA03D85A
:1046A0004FF0FF30014607E00022254B20463146FF
:1046B000FCF77BF8FCF701FA102409E0002C0ADB78
:1046C0000A220023FBF77EFD039B30321A55641E3D
:1046D00050EA0102F2D1641C039AC4F1110314449C
:1046E000119A012A03D0012208430DD10AE00843A0
:1046F00004D000204FF0110B119072E7A3EB0B05D3
:104700006D1E0DE05B4504DD4FF0000205F1010573
:1047100004E003DA4FF00002A5F10105002AECD015
:1047200002981199C0E90231C0E9004579E700001B
:10473000000014400000F03F300000000000F04393
:104740000000E03F30380A2801D2012070470020E5
:10475000704700002DE9FF4F95B09A4688460646FF
:104760000025EEE1252877D100242746F94A0121CA
:10477000039400E0044316F8013F203B01FA03F0E4
:104780001042F7D130782A2811D06FF02F033078FB
:10479000A0F13002092A16D8039A44F0020402EB71
:1047A000820203EB42021044761C0390EFE758F8B4
:1047B000042B0392002A03DA504244F4005403907D
:1047C00044F00204761C30782E2816D116F8010F1A
:1047D00044F004042A280DD06FF02F023078A0F1A5
:1047E0003003092B09D807EB870302EB4303C718F3
:1047F000761CF3E758F8047B761C30786C280FD0D1
:1048000006DC4C2817D068280DD06A2814D104E0A3
:10481000742810D07A280FD10DE044F400140AE077
:1048200044F4801401E044F440147278824202D1CE
:1048300004F58014761C761C307866280BD013DCC7
:10484000582877D009DC002875D04528F6D04628AE
:10485000F4D047281AD193E118E0632835D06428B2
:1048600079D0652812D18BE1702873D008DC6728D5
:10487000F1D069286FD06E280DD06F2806D1ACE03A
:1048800073282CD0752874D0782853D052461799A5
:1048900090476D1C54E1C4F30250022809D003284C
:1048A0000DD0D8F8001004280DD00D6008F10408D0
:1048B00046E1D8F80010EA17C1E90052F6E7D8F847
:1048C00000100D80F2E70D70F0E718F8041B8DF86A
:1048D000001000208DF80100EB46012003E058F89D
:1048E00004BB4FF0FF3061074FF0000102D40DE030
:1048F00009F101018946B9420FDA8145F8DB1BF85D
:1049000009100029F4D108E009F10101894681422A
:10491000FADB1BF809100029F6D103985346A0EBE7
:10492000090721463846179A00F080FA284400EB20
:10493000090507E044E008E10DE01BF8010B5246D1
:1049400017999047B9F10109F7D2534621463846E5
:10495000179AF2E039E00A21C4F302524FF0000B3B
:104960000091022A06D058F8040BC117032A09D077
:104970000AE023E008F1070020F00702F2E8020154
:10498000904605E000B2C117042A01D140B2C11718
:10499000002906DA0A460021404261EB02012D227D
:1049A00002E0220504D52B228DF80420012203E029
:1049B000E20701D02022F7E7914657E00A2100E004
:1049C00010214FF0000B00910BE010214FF0000B75
:1049D00044F004040827009103E008204FF0000B86
:1049E0000090C4F30252022A05D058F8040B0021AB
:1049F000032A08D008E008F1070020F00702F2E8D7
:104A00000201904603E080B2042A00D1C0B24FF008
:104A1000000922072AD53278702A07D0DDF800C0B5
:104A20008CF0100C5CEA0B0C05D00EE040228DF8E7
:104A30000420012208E050EA010306D030238DF85B
:104A400004308DF8052002229146009B83F0080374
:104A500053EA0B030AD150EA010201D1620705D5DE
:104A600030228DF804204FF001097F1E3278582A39
:104A700004D039A20C920CAA02920BE03BA2F9E7F7
:104A80005B46009AFBF79EFB0C9B9B5C029A521EB6
:104A90000292137050EA0102F2D1029804A9081A96
:104AA00000F1200B600702D524F4803400E00127D8
:104AB0005F4502DDA7EB0B0000E0002000EB0B01DF
:104AC000009003984944401A0390E00306D45346EB
:104AD0002146179A039800F0A9F90544002706E03B
:104AE00001A85246C05D179990476D1C7F1C4F4529
:104AF000F6DBE0030CD553462146179A039800F0E5
:104B000095F9054404E030205246179990476D1CF2
:104B10000099481E00900029F5DC08E002980299EF
:104B200052460078491C0291179990476D1CBBF1C1
:104B30000001ABF1010BF1DC5BE100F065F905442C
:104B4000761C307800287FF40DAE19B02846BDE8F9
:104B5000F08F000009280100303132333435363708
:104B600038396162636465660000000030313233B9
:104B70003435363738394142434445460000000059
:104B8000600700D4062708F1070020F00700F0E8CE
:104B90000223804603F0004C5FEA0C0001D097A08E
:104BA00009E0200501D596A005E0E00701D095A019
:104BB00001E0AFF24C001390307823F000436528F9
:104BC0000CD006DC452809D046281DD047287FD1C7
:104BD0003BE0662818D067287AD136E00021112FF3
:104BE00001DB112000E0781CCDE9000104A90CA82C
:104BF000FFF7E6FCDDE90D010C9A4FF0000B07F121
:104C00000109109200914EE04FF000400097CDE96D
:104C1000011004A90CA8FFF7D3FCDDE90D020C9BE1
:104C20000F994FF0000B91461093009211B9791C27
:104C300000EB0109B7EB090003D4C0F1FF3B07F11A
:104C40000109A9EB0700019042E0012F00DA0127DA
:104C50000021112F01DD112000E03846CDE90001CF
:104C600004A90CA8FFF7ACFCDDE90D010C9A00913A
:104C70004FF0000BB946109221070FD4009A4A4515
:104C800003DA914601E0A9F10109B9F1010F05DD4F
:104C9000109AA9F10101515C3029F4D0B84202DA2E
:104CA00010F1040F03DA0121CDE9011010E0002812
:104CB00003DC8344A9EB000102E0411C494500DD0F
:104CC0008946A0EB0B00401C01904FF00040029081
:104CD000200705D40198484502DB4FF0FF300190D2
:104CE00000208DF84B0002980DF14B07B0F1004FFA
:104CF00025D002200C902B200D90029800280CDA71
:104D0000404202902D200D9007E00A210298FBF707
:104D100050FC3031029007F8011D0C99481E0C9090
:104D20000029F2DC02980028EFD1791E0D98087056
:104D3000307800F0200040F0450007F8020D11A87F
:104D4000C01BC01D02901398007800B1012000EB39
:104D50000901019801EBE071029801440398401A9F
:104D6000401E0390E00306D453462146179A039849
:104D700000F05CF805441398007818B15246179972
:104D800090476D1CE00323D553462146179A03989C
:104D900000F04CF805441BE0BBF1000F07DB009866
:104DA000584504DD1098179910F80B0001E0179989
:104DB00030205246904701980BF1010B401E05F13F
:104DC0000105019004D12E205246179990476D1C81
:104DD000B9F10001A9F10109DEDC05E017F8010BCA
:104DE0005246179990476D1C0299481E029000295F
:104DF000F4DC53462146179A03989EE62D000000E6
:104E00002B000000200000002DE9F04104460025A1
:104E10001E461746880404D405E039462020B047D2
:104E20006D1C641EF9D52846BDE8F0812DE9F041DE
:104E3000044600251E469046C80301D5302700E0F1
:104E40002027880404D505E041463846B0476D1C4C
:104E5000641EF9D52846BDE8F081000010B586B083
:104E600004460020059014216846FBF7F5F900225E
:104E700069461048FDF72AFC002205A90D48FDF7F8
:104E8000FFFB9DF8170000F5FA6020809DF81500E3
:104E9000A0709DF81600E0709DF81400E0719DF878
:104EA000000020719DF8010060719DF80200A07162
:104EB00006B010BDAC00002010B586B0044600203E
:104EC000059014216846FBF7C7F92078A0F5FA6031
:104ED000C0B28DF81700A0788DF81500E0788DF835
:104EE0001600E0798DF8140020798DF800006079C3
:104EF0008DF80100A0798DF802000022694605486E
:104F0000FDF7EAFC002205A90248FDF785FC06B082
:104F100010BD0000AC0000204A68002A06D00A68D4
:104F2000531C0B6010704868401E486070470000BA
:104F300038B52820FCF7E8F900F029F808B101207D
:104F400038BD0CA0006800900321684600F0BCF852
:104F500008B90020F4E7002408E00120FCF7D4F9A8
:104F600000F015F808B10120EAE7641C642CF4D3C2
:104F70000020E5E7BE08000008B5684600F074F8B8
:104F800008B9002008BD9DF80000C009FAE708B57F
:104F9000684600F069F808B9002008BD9DF80000D7
:104FA000C0F3C000F9E7000038B504460D466420A0
:104FB000ABB22246702100900348FCF7A7FB08B96A
:104FC000012038BD0020FCE7580000202DE9FC41FD
:104FD00006460F4606216846FFF7E6FF10B9002097
:104FE000BDE8FC819DF8010000039DF8021040EA35
:104FF00001109DF8031040EA11149DF8030000070A
:10500000000B9DF8041040EA01209DF8051040EACD
:10501000010500EE104AB8EE400ADFED0F0A20EE5F
:10502000200ADFED0E0A80EE201A87ED001A00EE4E
:10503000105AB8EE400ADFED0A0A20EE200A9FED72
:10504000071AC0EE010A9FED070A30EEC00A86ED8E
:10505000000A0120C4E700000000C84200008049A7
:10506000000048430000484238B5044671200090D3
:105070000121684600F028F808B9002038BD012158
:105080002046FFF791FF08B90020F7E70120F5E778
:1050900008B504A0006800900321684600F014F8E9
:1050A00008BD0000AC33000010B5002408E001206A
:1050B000FCF72AF9FFF760FF08B9012010BD641C56
:1050C000C82CF4D30020F9E738B504460D46642017
:1050D000ABB22246702100900348FCF79DFC08B952
:1050E000012038BD0020FCE75800002070B50246C2
:1050F0000B8803EBD3767610F01DC61700EB5676BF
:10510000F5100888684384B2486880B14B6800BFD6
:105110001878904205D1D1E901609E1B06FB04007E
:1051200070BD581C034600780028F1D105E0A2F1BB
:1051300020008B6800FB0430F2E70020F0E700005D
:1051400070B506460C48006840B900F057F80B48A7
:1051500000680B49B0FBF1F0074908600948446852
:105160000548006806FB00F500BF06484068001BC4
:10517000A842FAD370BD0000480000200C000020B7
:1051800040420F00001000E01448006820B11348AE
:105190000068401E114908601148006820B110489D
:1051A0000068401E0E4908600E48006820B10D4896
:1051B0000068401E0B4908600B48006820B10A488F
:1051C0000068401E084908600848006820B1074888
:1051D0000068401E0549086070470000100000206C
:1051E00014000020180000201C00002020000020D7
:1051F0000149086070470000380000200748006837
:1052000040F0807005490860002005494860084664
:10521000006840F00100086070470000FCED00E00D
:10522000001000E02DE9FC4104460027002040F278
:105230003F13EF220146009001F034F8104A252177
:10524000282000F0D1FF00262046FBF72EF80D495C
:10525000098848434508F02D05DAC5F1F10000EB57
:10526000D071C1F34F06074800214FF6E073224684
:10527000CDE90010F521304601F0D6FABDE8FC81F9
:10528000788E02087C950008F0B5A1B005460E4660
:10529000174605B116B9002021B0F0BD2B460BA270
:1052A000802101A80096FFF71DF904463FB1C4F123
:1052B000800101AA10193B4609A2FFF713F941F238
:1052C000883101A800F04EF9E6E7000041542B4375
:1052D000574A41503D222573222C2225732200007B
:1052E0002C22257322000000004870471403002080
:1052F00070B504464FF4FA6112A000F033F908B912
:10530000002070BDFFF7F0FF0546214600F03EFE8D
:1053100008B90020F5E794F85C00012810D14FF49B
:10532000FA610BA000F01EF908B90020E9E7FFF7C9
:10533000DBFF0546214600F0F5FD08B90020E0E757
:105340000120DEE741542B435753544154453F005D
:1053500041542B43574A41503F00000070B504466A
:10536000094D234609A24FF480612846FFF7BAF899
:1053700041F28831284600F0F5F8064616B1FFF7ED
:10538000B3FF70BD0020FCE71403002041542B48FC
:10539000545450434C49454E543D322C312C222517
:1053A00073222C2C2C32000010B540F6B83000F0DF
:1053B000ADF808B9002010BD4FF4FA6107A000F065
:1053C000D1F808B90020F6E741F2883000F0B0F8D3
:1053D00008B90020EFE70120EDE7000041542B520F
:1053E0004553544F5245000070B504464FF4FA61DE
:1053F00008A000F0B7F808B9002070BDFFF774FFEF
:105400000546214600F046FD08B90020F5E70120D9
:10541000F3E7000041542B434950534E5450544934
:105420004D453F0010B54FF4FA6104A000F09AF822
:1054300008B9002010BD0120FCE7000041542B43B7
:105440004950534E54504346473D312C38000000DC
:105450002DE9F843054600241A4FFCF769F8804609
:1054600000203946087026E00A23012269461648C2
:10547000FDF7A4FFB0B99DF800202046641C114937
:105480000A5400200855601E085C0A280AD13846D4
:1054900000F052FC064616B13046BDE8F8830948D4
:1054A000071900BFFCF744F8A0EB0800A84201D39D
:1054B0000020F2E700BF40F2FF308442D4D3002046
:1054C000EBE7000014030020B401002038B50446C7
:1054D00064B1207850B12046FAF7E7FE85B24FF06C
:1054E000FF332A4621460748FDF7C9FF06A000689A
:1054F00000904FF0FF33022269460248FDF7BFFFDC
:1055000038BD0000B40100200D0A000070B504464B
:10551000002507E0642105A000F024F808B101206F
:1055200070BD6435A542F5D30020F9E74154000071
:1055300010B504462046FFF78BFF042801D1012057
:1055400010BD0020FCE7000010B54FF4FA6102A086
:1055500000F008F810BD000041542B43574D4F4454
:10556000453D310070B504460D46214609A0FEF7C1
:10557000A9FF2046FFF7AAFF2846FFF769FF064666
:1055800009490AA0FEF79EFF012E01D1012070BD3E
:105590000020FCE75B44454255475D2053656E643F
:1055A0003A2025730A000000140300205B444542A2
:1055B00055475D20526573706F6E73653A0A2573A7
:1055C0000A00000013B50C464FF0FF330122694674
:1055D0000248FDF754FF00981CBD00006C0100203C
:1055E00010B50446F02C02DAB1F5A07F01DB0020F3
:1055F00010BDF02A02DAB3F5A07F01DB0020F7E747
:10560000944201DC994201DD0020F1E70120EFE73F
:1056100000B52DED048B85B03148006818B105B098
:10562000BDEC048B00BD40F6B8302D490860FFF793
:105630002FFD18B92BA0FEF745FFF0E7FFF734FD6B
:1056400018B931A0FEF73EFFE9E79FED390A8DED6D
:10565000040A9FED370A8DED030A03A904A8FFF79A
:10566000B5FC18B933A0FEF72DFFD8E79DED040A6D
:105670003948D0ED000AB4EE600AF1EE10FA0AD112
:105680009DED030A3548D0ED000AB4EE600AF1EE54
:1056900010FA00D1C3E79DED040A2F4880ED000AFF
:1056A0009DED030A2D4880ED000A0398FAF752FF9A
:1056B00041EC190B0498FAF74DFF41EC180B8DEDF6
:1056C000009B53EC182B26A0FEF7FCFE9DED040A70
:1056D00000F0F8F99DED030A00F0BEF900BF9EE767
:1056E0001C0000205B41485432305D2073746172AD
:1056F00074206D6561737572656D656E7420666189
:10570000696C65640A0000005B41485432305D20DA
:105710007761697420666F72206D6561737572655B
:105720006D656E74206661696C65640A0000000036
:10573000000000005B41485432305D2072656164B6
:10574000206D6561737572656D656E742066616943
:105750006C65640A000000002C000020300000206E
:105760005B41485432305D2054656D7065726174E0
:105770007572653A20252E31662C2048756D696456
:105780006974793A20252E31660A00000146A12964
:1057900003DBF72901DC012070470020FCE7000053
:1057A000FCF742FAFEF7E0FBFEF76EF9FEF73CFA73
:1057B000FEF7D8F9FEF790FAFEF7AAFAFEF7F0F92D
:1057C000FEF754FA0B48FDF791FBFFF7B1FB00F031
:1057D000B3FD01F061F901F0A7F901F011FA01F050
:1057E000F7FA00F015F800F01BF801E000F004F8FB
:1057F000FCE700002401002010B501F055F801F08D
:1058000051FA01F0F1F8FFF703FF00F0CBFA10BDF9
:1058100010B50248FFF7ECFC10BD000089510008EC
:105820001CB5002040F23F13EF220146009000F02B
:1058300039FD00BF4FF6DF709A23E0220F21009060
:10584000084600F02FFD3F4A1421172000F0CCFC41
:105850003DA000F053FA3D484FF6DF7100233CA213
:10586000CDE900102A21192000F0DEFF3A484FF65A
:10587000DF7148F6714339A2CDE900107921232068
:1058800000F0D2FF00BF00BF48F6DD604FF4987310
:105890007222A52100900F2000F004FD344848F644
:1058A000DD61002333A2CDE90010AA21132000F00E
:1058B000BBFF334848F6DD61002332A2CDE900107A
:1058C000BF21562000F0B0FF2D4848F6DD610023CF
:1058D0002DA2CDE900104FF483715B2000F0A4FFEE
:1058E0009FED2A0A00F0EEF89FED280A00F0B4F8C8
:1058F00000BF00BF4FF629404FF49873E022A52166
:1059000000907D2000F0CEFC1D484FF62941002379
:105910001CA2CDE90010BD21C02000F085FF1C4A6B
:10592000EF218B2000F060FC1AA000F009F99FED38
:10593000170A00F01FF94FF0FF3000F059F900BFCF
:105940001CBD0000A87903083730360040C90008A4
:105950002D2D3A2D2D000000CCB000082D2D2D2D21
:105960002F2D2D2F2D2D20D0C7C6DACBC40000003F
:10597000E4B50008CAD2C4DABBB7BEB30000000069
:105980007C95000843000000250000009AF9794446
:1059900010820308B9E3D6DD0000000010B588B01E
:1059A0000446E079012801D11CA21EE0E07902281A
:1059B00001D11BA219E0E079032801D119A214E05A
:1059C000E079042801D118A20FE0E079052801D17F
:1059D00016A20AE0E079062801D115A205E0E079D7
:1059E000072801D113A200E013A2E078A178CDE945
:1059F00001020091238811A2122103A8FEF772FD73
:105A000014484FF6DF7148F6714303AACDE9001040
:105A10007921232000F008FF08B010BDD2BB0000A0
:105A2000B6FE0000C8FD0000CBC40000CEE50000BB
:105A3000C1F90000CCEC000058000000253034759E
:105A40002F253032752F2530327520D0C7C6DA2584
:105A500073000000CCB0000800B52DED048B83B0BE
:105A6000B0EE408AB5EEC08AF1EE10FA13DD9FED7C
:105A7000110AB4EEC08AF1EE10FA0CD818EE100A32
:105A8000FAF768FD41EC190B8DED009B0AA203218A
:105A900002A8FEF727FD0A4848F6DD61002302AAA6
:105AA000CDE90010EF21192000F0BEFE03B0BDECDF
:105AB000048B00BDE1FAC74225322E30660000009B
:105AC0007C95000800B52DED048B83B0B0EE408AC4
:105AD000164800680290BAEE040AB4EEC08AF1EEED
